:020000040800F2
:1000000038040020D5000008490F0008890D0008B9
:1000100000000000000000000000000000000000E0
:100020000000000000000000000000004D0F00086C
:1000300000000000000000004B0F00084F0F0008F8
:100040000501000800000000050100080501000886
:100050000501000805010008050100080501000868
:100060000000000005010008050100080501000866
:100070000501000805010008050100080000000056
:100080000501000800000000000000000501000854
:100090000000000005010008050100080501000836
:1000A0000000000005010008000000000501000834
:1000B0000501000800000000000000000501000824
:1000C0000348854600F05AF8004800476D110008C3
:1000D000380400200C4880F308880C480168090E99
:1000E0000B4A914205D10B480B4901600B480C4962
:1000F00001600C4880470C480047FEE7FEE7FEE73A
:10010000FEE7FEE7FEE700003804002004000000E0
:100110001F00000018100240010000000000014014
:100120000000000055100008C100000830B50B4663
:10013000014600202022012409E00D46D5409D42C1
:1001400005D31D469540491B254695404019154647
:10015000521E002DF1DC30BDD2B201E00270401C15
:10016000491EFBD270470022F6E710B513460A4637
:1001700004461946FFF7F0FF204610BD064C012546
:10018000064E05E0E36807CC2B430C3C984710343F
:10019000B442F7D3FFF798FFFC1100081C120008C7
:1001A00010B586B00446142101A8FFF7DCFF00F06B
:1001B000EDFD0120029003900020049002200190A8
:1001C00001A9064800F07CF8012000F0D3FD20468C
:1001D00000F066F800F00AFE06B010BD00140048FA
:1001E000F0B585B000260027002514216846FFF7EA
:1001F000BAFF00200190022002900020039002200C
:1002000000906946214800F05BF8002202211F4857
:1002100000F057F9012413E0E0B200F067FE02217C
:100220001A4800F045F9012809D1002E00D1A6B2E4
:10023000781C87B2611E01208840284385B2641C67
:100240000A2CE9DD002E03D11148124908800DE087
:10025000012F07D1104D2846B04085B2E8430D4923
:10026000088003E00A48A8430A490880012149029E
:100270000920C00600F01CF9012800D100E0002090
:100280000449887000F0B2FD05B0F0BD00140048CC
:10029000FF03000028000020FFFF000000BFFEE772
:1002A00031B500F015F90546009C601C002800D00F
:1002B000641C00BF00F00CF9401BA042FAD338BD0B
:1002C00078B50346002200240020DEE00126964097
:1002D0000D6835402C46002C7ED04D68022D02D092
:1002E0004D68122D15D1D508AE001D462035A859F0
:1002F0005507EE0E0F25B5400646AE43304656076D
:10030000F60E0D69B5402843D508AD001E462036CF
:100310007051186856000325B5400646AE43304676
:100320000D79AD07AD0F5600B540284318604D68F4
:10033000012D08D04D68022D05D04D68112D02D039
:100340004D68122D18D1986856000325B540064611
:10035000AE4330465600CD68B54028439860586893
:10036000012595400646AE43304610264D6835407F
:100370002D09954028435860D86856000325B5409C
:100380000646AE43304656008D68B5402843D860D7
:10039000012636074D683540B54275D100BF3E4D48
:1003A000AD69012635433C4EB5613546AD69ED0773
:1003B000ED0F009500BF00BF384D9608B600A85954
:1003C00095072E0F0F25B5400646AE43304609254A
:1003D000ED06AB4203D100E056E000250FE0304DC2
:1003E000AB4201D101250AE02E4DAB4201D10225DD
:1003F00005E02D4DAB4201D1032500E00525960710
:10040000360FB5402843254D9608B600A851274D14
:1004100028680546A5432846012636044D68354020
:10042000B54202D1054625432846204D286068681C
:100430000546A5432846012676044D683540B54259
:1004400002D1054625432846184D6860A868054630
:10045000A5432846012636054D683540B54202D1F0
:10046000054625432846114DA860E8680546A54382
:100470002846012676054D683540B54202D105462D
:1004800025432846094DE860521C0D68D540002DD3
:1004900000D01BE778BD00000010024008000140BA
:1004A0000004004800080048000C00480004014017
:1004B000024613690B40002B01D0012000E0002010
:1004C0007047002A01D0816100E08162704700001E
:1004D00001480068704700002C00002002480068B6
:1004E000401C0149086070472C00002010B50648E8
:1004F00000681021084304490860032000F006F852
:1005000000F018F8002010BD0020024070B504462D
:1005100000F004F906467D21C900FFF707FE0546F5
:1005200000F00CFC00222146501E00F023F80020B1
:1005300070BD000008B500BF0D4880690121084367
:100540000B49886108468069C007C00F009000BF52
:1005500000BF00BF0846C069090408430449C861D8
:100560000846C06909040840009000BF00BF08BDEC
:100570000010024070B504460D4616462946204636
:1005800000F0A8FD70BD000070B504460D460026C1
:100590005D480068C007C00FA8420ED25A480068E4
:1005A0004008400028435849086008460068C007D2
:1005B000C00FA84201D0012070BD02212068084070
:1005C000022807D151484068F0218843A1680843B8
:1005D0004E4948602078C007C00F00285FD060688F
:1005E000012808D149480068012149040840002831
:1005F00015D10120E0E76068022808D1434800686F
:10060000012149060840002809D10120D4E73F48CC
:10061000006802210840002801D10120CCE73B48B6
:100620004068800880006168084338494860FFF7E7
:100630004FFF0646606801280FD107E0FFF748FF2B
:10064000801B3349884201D90320B5E72F48406811
:100650000C2108400428F1D121E0606802280FD164
:1006600007E0FFF735FF801B2949884201D90320A5
:10067000A2E7264840680C2108400828F1D10EE086
:1006800007E0FFF725FF801B2149884201D903209D
:1006900092E71E4840680C2108400028F1D11A4812
:1006A0000068C007C00FA8420ED91748006840086C
:1006B000400028431449086008460068C007C00F7E
:1006C000A84201D0012077E70421206808400428CF
:1006D00008D10E484068072109028843E1680843B1
:1006E0000A49486000F020F808494968F0221140A2
:1006F0000909084A515CC840074908600320FFF710
:1007000005FF002058E700000020024000100240D2
:1007100088130000E4110008300000200148006840
:100720007047000030000020F0B589B025A00146D8
:100730000EC9C06805AC0EC4089026A001460EC9BB
:10074000C06801AC0EC404900024002600270025D8
:1007500000200090234844680C20204000282AD024
:10076000042802D0082825D102E01F48009025E087
:100770000F2080042040800C05A90D5C1948C06A38
:100780000007000F01A90E5C0320C00320400121D7
:100790000904884206D131461348FFF7C7FC684375
:1007A000074605E031461048FFF7C0FC684307469E
:1007B000009703E000BF0C48009000BF00BF009806
:1007C00009B0F0BD02030405060708090A0B0C0D69
:1007D0000E0F10100102030405060708090A0B0C8E
:1007E0000D0E0F100010024000127A00F8B50446FA
:1007F00000252078C007C00F002872D0FA48406852
:100800000C21084004280CD0F7484068084008280C
:1008100013D1F54840684903084001210904884282
:100820000BD1F148006801214904084000286BD031
:100830006068002868D10120F8BD00BF6068012809
:1008400007D1E9480068012109040843E649086026
:1008500031E0606800280ED1E348006801210904F6
:100860008843E149086008460068012189048843FB
:10087000DD4908601FE0606805280ED1DA4800688D
:10088000012189040843D84908600846006801210D
:1008900009040843D44908600DE0D34800680121E9
:1008A00009048843D049086008460068012189048A
:1008B0008843CD49086000BF6068002812D0FFF768
:1008C00007FE054606E0FFF703FE401B642801D93A
:1008D0000320B1E7C448006801214904084000280A
:1008E000F1D011E0FFF7F4FD054606E0FFF7F0FD5B
:1008F000401B642801D903209EE7BB480068012102
:10090000490408400028F1D102212068084002284B
:1009100062D1B54840680C21084000280CD0B2488C
:100920004068084008281CD1AF4840684903084087
:100930000121C903884214D1AB4800680221084054
:10094000002804D0E068012801D0012074E7A648FF
:100950000068F82188432169C9000843A24908605A
:100960003AE0E068002820D09F4800680121084351
:100970009D490860FFF7ACFD054606E0FFF7A8FDBE
:10098000401B022801D9032056E79748006802213E
:1009900008400028F2D094480068F8218843216973
:1009A000C90008439049086016E08F480068400875
:1009B00040008D490860FFF78BFD054606E0FFF714
:1009C00087FD401B022801D9032035E786480068CF
:1009D000022108400028F2D1082120680840082898
:1009E00031D1E069002817D07F48406A01210843CF
:1009F0007D494862FFF76CFD054606E0FFF768FD9C
:100A0000401B022801D9032016E77748406A0221DB
:100A100008400028F2D016E07348406A40084000C1
:100A200071494862FFF754FD054606E0FFF750FDA7
:100A3000401B022801D90320FEE66B48406A0221D0
:100A400008400028F2D1042120680840042871D110
:100A500000266548C0698906084000280DD100BFFE
:100A60006148C06908436049C8610846C069090413
:100A70000840009000BF00BF01265C480068FF21CD
:100A800001310840002816D15848006808435749EA
:100A90000860FFF71DFD054606E0FFF719FD401B46
:100AA000642801D90320C7E650480068FF210131BE
:100AB00008400028F1D000BFA068012806D14A48AC
:100AC000006A01210843484908622BE0A068002819
:100AD0000CD14548006A4008400043490862084676
:100AE000006A04218843404908621BE0A068052889
:100AF0000CD13D48006A042108433B49086208467E
:100B0000006A01210843384908620BE03648006A50
:100B100040084000344908620846006A04218843BE
:100B20003149086200BFA068002813D0FFF7D0FC4D
:100B3000054608E029E0FFF7CBFC401B2C49884222
:100B400001D9032078E62848006A022108400028DD
:100B5000F1D011E0FFF7BCFC054607E0FFF7B8FC59
:100B6000401B2349884201D9032065E61E48006ADC
:100B7000022108400028F1D1012E05D11A48C06990
:100B8000310788431849C86100BF10212068084018
:100B900010285FD1606901282CD11348406B0421D3
:100BA0000843114948630846406B012108430E4938
:100BB0004863FFF78DFC054606E0FFF789FC401B04
:100BC000022801D9032037E60748406B022108407C
:100BD0000028F2D00448406BF8218843A169C9007D
:100BE00008430149486335E00010024000700040AE
:100BF000881300006069401D00280FD14E48406BEB
:100C0000042188434C4948630846406BF8218843D7
:100C1000A169C9000843484948631BE04648406B46
:100C200004210843444948630846406B400840009B
:100C30004863FFF74DFC054606E0FFF749FC401B03
:100C4000022801D90320F7E53B48406B0221084008
:100C50000028F2D1206A00286CD0374840680C2167
:100C60000840082864D0206A022847D1324800682A
:100C700001210906884330490860FFF729FC054631
:100C800006E0FFF725FC401B022801D90320D3E52D
:100C9000294800680121490608400028F1D100BF19
:100CA0002548C06A00090001E16A08432249C86278
:100CB000616AA06A0843204949687B22D2039143B4
:100CC00008431D49486000BF084600680121090625
:100CD000084319490860FFF7FBFB054606E0FFF7EC
:100CE000F7FB401B022801D90320A5E51248006844
:100CF0000121490608400028F1D01BE00E48006899
:100D00000121090688430C490860FFF7E1FB05460D
:100D100006E0FFF7DDFB401B022801D903208BE52D
:100D2000054800680121490608400028F1D101E08A
:100D3000012081E500207FE50010024070B50446E7
:100D40002546681E0949884201D901200CE0681E29
:100D5000074948610321081F00F0BCF9002004493D
:100D6000886107200861002070BD0000FFFFFF00C0
:100D700000E000E010B50446224602210148FFF7DA
:100D8000A0FB10BD0014004800BFFEE710B586B000
:100D9000142101A8FFF7E7F900200290002413E0D6
:100DA00060000B49085A0190A1000A4A505801A955
:100DB000FFF786FA6200064B995AA200054B985835
:100DC0000022FFF77EFB641C0A2CE9DB06B010BD95
:100DD000D0110008000000200146034800884A1E88
:100DE00001239340184070472800002010B586B0BA
:100DF00000BF3A4840690121490408433749486126
:100E000008464069012149040840009000BF00BF26
:100E100000BF3248406949000843304948610846EC
:100E20004069012189040840009000BF00BF00BF55
:100E30002A48406909010843284948610846406931
:100E4000012189050840009000BF00BF142101A8BE
:100E5000FFF789F9012002900390002004900024FC
:100E600013E060001E49085A0190A1001D4A505825
:100E700001A9FFF725FA6200194B995AA200194BF4
:100E800098580022FFF71DFB641C0A2CE9DB0024A4
:100E900013E060001249085A0190A100114A50580D
:100EA00001A9FFF70DFA62000D4B995AA2000D4BF4
:100EB00098580022FFF705FB641C0A2CE9DB002090
:100EC00002900220019001A90748FFF7F9F90022DA
:100ED00002210548FFF7F5FA06B010BD00100240E8
:100EE000D0110008000000200014004870B504462E
:100EF000002509E06A00124B995AAA00114B985834
:100F00000022FFF7DEFA6D1C0A2DF3DB002C01DD59
:100F1000012000E000200B2C01DA012100E000217B
:100F2000084000280AD0601EC4B26200044B995ADF
:100F3000A200044B98580122FFF7C3FA70BD0000CD
:100F4000D01100080000002070477047704710B5AE
:100F5000FFF7C4FA10BD00B591B000200190022047
:100F6000099081030A9100210C91C1040B9101A801
:100F7000FFF73CFC002801D0FFF790F907200D9007
:100F800002200E9000200F90109001210DA8FFF775
:100F9000FBFA002801D0FFF781F911B000BD000075
:100FA000F8B50025002400260027264840680C21BB
:100FB00008400546002D04D0042D06D0082D2FD161
:100FC00007E02148214908602EE01F481F490860BA
:100FD0002AE01C4840680F2189040840044619484B
:100FE00040680321C90308400646A00C841C15482C
:100FF000C06A0007000F471C01200004864207D189
:1010000039461148FFF792F860431049086006E03E
:1010100039460D48FFF78AF860430C49086003E041
:1010200009480A49086000BF00BF06484068F0212F
:101030000840000906490D5C04480068E84003497F
:101040000860F8BD0010024000127A003000002055
:10105000E41100081C480068012108431A4908608F
:101060000846406819490840174948600846006822
:10107000174908401449086008460068012189049E
:10108000884311490860084640683F2109048843A5
:101090000D4948600846C06A00090001C862084658
:1010A000006BFF2194318843074908630846006BB1
:1010B00080210843044908630846406B400840000B
:1010C0004863002088607047001002400CB8FF0899
:1010D000FFFFF6FE10B5002819DB1A4A03231B0296
:1010E000D21883089B00D2588307DC0EFF23A3404D
:1010F0009A438B071B0E8407E40EA3401A43114B3F
:10110000032424021B198408A4001A5118E00E4A73
:1011100003071B0F083B9B089B00D2588307DC0E7C
:10112000FF23A3409A438B071B0E8407E40EA340C2
:101130001A43054B0407240F083CA408A4001A51C5
:1011400010BD000000E100E01CED00E002E008C876
:10115000121F08C1002AFAD170477047002001E031
:1011600001C1121F002AFBD170470000FFF7BEF932
:10117000FFF7F1FEFFF714FFFFF738FE24E0FFF75B
:101180002FF800241EE0611C88B2FFF725FE00281E
:1011900017D00E498978002901D1322100E00A21B7
:1011A0000846FEF7FDFF611CC8B2FFF79FFE074926
:1011B0008978002901D1C82100E014210846FFF7F1
:1011C0006FF8641C0A2CDEDBD9E700002800002041
:1011D000010001000200040008001000020080006D
:1011E0004000200000000000000000000102030495
:1011F0000607080900000000010203041C12000891
:1012000000000020340000004C11000850120008BB
:1012100034000020040400005C11000800140048A1
:10122000000000480000004800000048000000489E
:10123000000000480004004800000048000000488A
:1012400000000048000000000000000000127A00CA
:04000005080000C12E
:00000001FF
